{
  "_format": "hh-sol-artifact-1",
  "contractName": "Ideas",
  "sourceName": "contracts/Ideas.sol",
  "abi": [
    {
      "inputs": [
        {
          "internalType": "bytes32",
          "name": "_title",
          "type": "bytes32"
        },
        {
          "internalType": "string",
          "name": "_description",
          "type": "string"
        },
        {
          "internalType": "string",
          "name": "_name",
          "type": "string"
        }
      ],
      "name": "addIdea",
      "outputs": [],
      "stateMutability": "nonpayable",
      "type": "function"
    },
    {
      "inputs": [
        {
          "internalType": "uint256",
          "name": "startIndex",
          "type": "uint256"
        },
        {
          "internalType": "uint256",
          "name": "endIndex",
          "type": "uint256"
        },
        {
          "internalType": "address",
          "name": "_address",
          "type": "address"
        }
      ],
      "name": "getIdeas",
      "outputs": [
        {
          "components": [
            {
              "internalType": "bytes32",
              "name": "title",
              "type": "bytes32"
            },
            {
              "internalType": "string",
              "name": "description",
              "type": "string"
            },
            {
              "internalType": "address",
              "name": "from",
              "type": "address"
            }
          ],
          "internalType": "struct Ideas.Idea[]",
          "name": "",
          "type": "tuple[]"
        }
      ],
      "stateMutability": "view",
      "type": "function"
    },
    {
      "inputs": [
        {
          "internalType": "address",
          "name": "_address",
          "type": "address"
        }
      ],
      "name": "getName",
      "outputs": [
        {
          "internalType": "string",
          "name": "",
          "type": "string"
        }
      ],
      "stateMutability": "view",
      "type": "function"
    }
  ],
  "bytecode": "0x608060405234801561001057600080fd5b50610fdc806100206000396000f3fe608060405234801561001057600080fd5b50600436106100415760003560e01c80635fd4b08a14610046578063965eb69e14610076578063bdde326f146100a6575b600080fd5b610060600480360381019061005b91906108fb565b6100c2565b60405161006d91906109c1565b60405180910390f35b610090600480360381019061008b9190610a19565b610193565b60405161009d9190610bf0565b60405180910390f35b6100c060048036038101906100bb9190610d73565b6102ea565b005b6060600160008373ffffffffffffffffffffffffffffffffffffffff1673ffffffffffffffffffffffffffffffffffffffff168152602001908152602001600020805461010e90610e2d565b80601f016020809104026020016040519081016040528092919081815260200182805461013a90610e2d565b80156101875780601f1061015c57610100808354040283529160200191610187565b820191906000526020600020905b81548152906001019060200180831161016a57829003601f168201915b50505050509050919050565b606060006101a0836104a9565b905080518411156101b057805193505b83851061021457600067ffffffffffffffff8111156101d2576101d1610c48565b5b60405190808252806020026020018201604052801561020b57816020015b6101f86107ac565b8152602001906001900390816101f05790505b509150506102e3565b600085856102229190610e8e565b67ffffffffffffffff81111561023b5761023a610c48565b5b60405190808252806020026020018201604052801561027457816020015b6102616107ac565b8152602001906001900390816102595790505b50905060008690505b858110156102dc5782818151811061029857610297610ec2565b5b60200260200101518288836102ad9190610e8e565b815181106102be576102bd610ec2565b5b602002602001018190525080806102d490610ef1565b91505061027d565b5080925050505b9392505050565b60208151111561032f576040517f08c379a000000000000000000000000000000000000000000000000000000000815260040161032690610f86565b60405180910390fd5b6000600160003373ffffffffffffffffffffffffffffffffffffffff1673ffffffffffffffffffffffffffffffffffffffff168152602001908152602001600020805461037b90610e2d565b905014156103d85780600160003373ffffffffffffffffffffffffffffffffffffffff1673ffffffffffffffffffffffffffffffffffffffff16815260200190815260200160002090805190602001906103d69291906107e6565b505b600060405180606001604052808581526020018481526020013373ffffffffffffffffffffffffffffffffffffffff16815250908060018154018082558091505060019003906000526020600020906003020160009091909190915060008201518160000155602082015181600101908051906020019061045a9291906107e6565b5060408201518160020160006101000a81548173ffffffffffffffffffffffffffffffffffffffff021916908373ffffffffffffffffffffffffffffffffffffffff1602179055505050505050565b60606000808054905067ffffffffffffffff8111156104cb576104ca610c48565b5b60405190808252806020026020018201604052801561050457816020015b6104f16107ac565b8152602001906001900390816104e95790505b5090506000805b6000805490508110156106f0578473ffffffffffffffffffffffffffffffffffffffff166000828154811061054357610542610ec2565b5b906000526020600020906003020160020160009054906101000a900473ffffffffffffffffffffffffffffffffffffffff1673ffffffffffffffffffffffffffffffffffffffff1614156106dd57600081815481106105a5576105a4610ec2565b5b9060005260206000209060030201604051806060016040529081600082015481526020016001820180546105d890610e2d565b80601f016020809104026020016040519081016040528092919081815260200182805461060490610e2d565b80156106515780601f1061062657610100808354040283529160200191610651565b820191906000526020600020905b81548152906001019060200180831161063457829003601f168201915b505050505081526020016002820160009054906101000a900473ffffffffffffffffffffffffffffffffffffffff1673ffffffffffffffffffffffffffffffffffffffff1673ffffffffffffffffffffffffffffffffffffffff16815250508383815181106106c3576106c2610ec2565b5b602002602001018190525081806106d990610ef1565b9250505b80806106e890610ef1565b91505061050b565b5060008167ffffffffffffffff81111561070d5761070c610c48565b5b60405190808252806020026020018201604052801561074657816020015b6107336107ac565b81526020019060019003908161072b5790505b50905060005b828110156107a05783818151811061076757610766610ec2565b5b602002602001015182828151811061078257610781610ec2565b5b6020026020010181905250808061079890610ef1565b91505061074c565b50809350505050919050565b60405180606001604052806000801916815260200160608152602001600073ffffffffffffffffffffffffffffffffffffffff1681525090565b8280546107f290610e2d565b90600052602060002090601f016020900481019282610814576000855561085b565b82601f1061082d57805160ff191683800117855561085b565b8280016001018555821561085b579182015b8281111561085a57825182559160200191906001019061083f565b5b509050610868919061086c565b5090565b5b8082111561088557600081600090555060010161086d565b5090565b6000604051905090565b600080fd5b600080fd5b600073ffffffffffffffffffffffffffffffffffffffff82169050919050565b60006108c88261089d565b9050919050565b6108d8816108bd565b81146108e357600080fd5b50565b6000813590506108f5816108cf565b92915050565b60006020828403121561091157610910610893565b5b600061091f848285016108e6565b91505092915050565b600081519050919050565b600082825260208201905092915050565b60005b83811015610962578082015181840152602081019050610947565b83811115610971576000848401525b50505050565b6000601f19601f8301169050919050565b600061099382610928565b61099d8185610933565b93506109ad818560208601610944565b6109b681610977565b840191505092915050565b600060208201905081810360008301526109db8184610988565b905092915050565b6000819050919050565b6109f6816109e3565b8114610a0157600080fd5b50565b600081359050610a13816109ed565b92915050565b600080600060608486031215610a3257610a31610893565b5b6000610a4086828701610a04565b9350506020610a5186828701610a04565b9250506040610a62868287016108e6565b9150509250925092565b600081519050919050565b600082825260208201905092915050565b6000819050602082019050919050565b6000819050919050565b610aab81610a98565b82525050565b600082825260208201905092915050565b6000610acd82610928565b610ad78185610ab1565b9350610ae7818560208601610944565b610af081610977565b840191505092915050565b610b04816108bd565b82525050565b6000606083016000830151610b226000860182610aa2565b5060208301518482036020860152610b3a8282610ac2565b9150506040830151610b4f6040860182610afb565b508091505092915050565b6000610b668383610b0a565b905092915050565b6000602082019050919050565b6000610b8682610a6c565b610b908185610a77565b935083602082028501610ba285610a88565b8060005b85811015610bde5784840389528151610bbf8582610b5a565b9450610bca83610b6e565b925060208a01995050600181019050610ba6565b50829750879550505050505092915050565b60006020820190508181036000830152610c0a8184610b7b565b905092915050565b610c1b81610a98565b8114610c2657600080fd5b50565b600081359050610c3881610c12565b92915050565b600080fd5b600080fd5b7f4e487b7100000000000000000000000000000000000000000000000000000000600052604160045260246000fd5b610c8082610977565b810181811067ffffffffffffffff82111715610c9f57610c9e610c48565b5b80604052505050565b6000610cb2610889565b9050610cbe8282610c77565b919050565b600067ffffffffffffffff821115610cde57610cdd610c48565b5b610ce782610977565b9050602081019050919050565b82818337600083830152505050565b6000610d16610d1184610cc3565b610ca8565b905082815260208101848484011115610d3257610d31610c43565b5b610d3d848285610cf4565b509392505050565b600082601f830112610d5a57610d59610c3e565b5b8135610d6a848260208601610d03565b91505092915050565b600080600060608486031215610d8c57610d8b610893565b5b6000610d9a86828701610c29565b935050602084013567ffffffffffffffff811115610dbb57610dba610898565b5b610dc786828701610d45565b925050604084013567ffffffffffffffff811115610de857610de7610898565b5b610df486828701610d45565b9150509250925092565b7f4e487b7100000000000000000000000000000000000000000000000000000000600052602260045260246000fd5b60006002820490506001821680610e4557607f821691505b60208210811415610e5957610e58610dfe565b5b50919050565b7f4e487b7100000000000000000000000000000000000000000000000000000000600052601160045260246000fd5b6000610e99826109e3565b9150610ea4836109e3565b925082821015610eb757610eb6610e5f565b5b828203905092915050565b7f4e487b7100000000000000000000000000000000000000000000000000000000600052603260045260246000fd5b6000610efc826109e3565b91507fffffffffffffffffffffffffffffffffffffffffffffffffffffffffffffffff821415610f2f57610f2e610e5f565b5b600182019050919050565b7f4e616d6520746f6f206c6f6e6700000000000000000000000000000000000000600082015250565b6000610f70600d83610933565b9150610f7b82610f3a565b602082019050919050565b60006020820190508181036000830152610f9f81610f63565b905091905056fea26469706673582212209024202058b62475c2c710782a5f8912f3e36dc299c0f9b8262797879a078ce964736f6c63430008090033",
  "linkReferences": {},
  "deployedLinkReferences": {}
}