{
  "_format": "hh-sol-artifact-1",
  "contractName": "Ideas",
  "sourceName": "contracts/Ideas.sol",
  "abi": [
    {
      "inputs": [
        {
          "internalType": "bytes32",
          "name": "_title",
          "type": "bytes32"
        },
        {
          "internalType": "string",
          "name": "_description",
          "type": "string"
        },
        {
          "internalType": "string",
          "name": "_name",
          "type": "string"
        },
        {
          "internalType": "uint256",
          "name": "_timestamp",
          "type": "uint256"
        }
      ],
      "name": "addIdea",
      "outputs": [],
      "stateMutability": "nonpayable",
      "type": "function"
    },
    {
      "inputs": [
        {
          "internalType": "uint256",
          "name": "startIndex",
          "type": "uint256"
        },
        {
          "internalType": "uint256",
          "name": "endIndex",
          "type": "uint256"
        },
        {
          "internalType": "address",
          "name": "_address",
          "type": "address"
        }
      ],
      "name": "getIdeas",
      "outputs": [
        {
          "components": [
            {
              "internalType": "bytes32",
              "name": "title",
              "type": "bytes32"
            },
            {
              "internalType": "string",
              "name": "description",
              "type": "string"
            },
            {
              "internalType": "address",
              "name": "from",
              "type": "address"
            },
            {
              "internalType": "uint256",
              "name": "timestamp",
              "type": "uint256"
            }
          ],
          "internalType": "struct Ideas.Idea[]",
          "name": "",
          "type": "tuple[]"
        }
      ],
      "stateMutability": "view",
      "type": "function"
    },
    {
      "inputs": [
        {
          "internalType": "address",
          "name": "_address",
          "type": "address"
        }
      ],
      "name": "getName",
      "outputs": [
        {
          "internalType": "string",
          "name": "",
          "type": "string"
        }
      ],
      "stateMutability": "view",
      "type": "function"
    }
  ],
  "bytecode": "0x608060405234801561001057600080fd5b50611034806100206000396000f3fe608060405234801561001057600080fd5b50600436106100415760003560e01c8063393b9740146100465780635fd4b08a14610062578063965eb69e14610092575b600080fd5b610060600480360381019061005b9190610a71565b6100c2565b005b61007c60048036038101906100779190610b6e565b610292565b6040516100899190610c23565b60405180910390f35b6100ac60048036038101906100a79190610c45565b610363565b6040516100b99190610e34565b60405180910390f35b602082511115610107576040517f08c379a00000000000000000000000000000000000000000000000000000000081526004016100fe90610ea2565b60405180910390fd5b6000600160003373ffffffffffffffffffffffffffffffffffffffff1673ffffffffffffffffffffffffffffffffffffffff168152602001908152602001600020805461015390610ef1565b905014156101b05781600160003373ffffffffffffffffffffffffffffffffffffffff1673ffffffffffffffffffffffffffffffffffffffff16815260200190815260200160002090805190602001906101ae9291906107c7565b505b600060405180608001604052808681526020018581526020013373ffffffffffffffffffffffffffffffffffffffff1681526020018381525090806001815401808255809150506001900390600052602060002090600402016000909190919091506000820151816000015560208201518160010190805190602001906102389291906107c7565b5060408201518160020160006101000a81548173ffffffffffffffffffffffffffffffffffffffff021916908373ffffffffffffffffffffffffffffffffffffffff16021790555060608201518160030155505050505050565b6060600160008373ffffffffffffffffffffffffffffffffffffffff1673ffffffffffffffffffffffffffffffffffffffff16815260200190815260200160002080546102de90610ef1565b80601f016020809104026020016040519081016040528092919081815260200182805461030a90610ef1565b80156103575780601f1061032c57610100808354040283529160200191610357565b820191906000526020600020905b81548152906001019060200180831161033a57829003601f168201915b50505050509050919050565b60606000610370836104ba565b9050805184111561038057805193505b8385106103e457600067ffffffffffffffff8111156103a2576103a1610910565b5b6040519080825280602002602001820160405280156103db57816020015b6103c861084d565b8152602001906001900390816103c05790505b509150506104b3565b600085856103f29190610f52565b67ffffffffffffffff81111561040b5761040a610910565b5b60405190808252806020026020018201604052801561044457816020015b61043161084d565b8152602001906001900390816104295790505b50905060008690505b858110156104ac5782818151811061046857610467610f86565b5b602002602001015182888361047d9190610f52565b8151811061048e5761048d610f86565b5b602002602001018190525080806104a490610fb5565b91505061044d565b5080925050505b9392505050565b60606000808054905067ffffffffffffffff8111156104dc576104db610910565b5b60405190808252806020026020018201604052801561051557816020015b61050261084d565b8152602001906001900390816104fa5790505b5090506000805b60008054905081101561070b578473ffffffffffffffffffffffffffffffffffffffff166000828154811061055457610553610f86565b5b906000526020600020906004020160020160009054906101000a900473ffffffffffffffffffffffffffffffffffffffff1673ffffffffffffffffffffffffffffffffffffffff1614156106f857600081815481106105b6576105b5610f86565b5b9060005260206000209060040201604051806080016040529081600082015481526020016001820180546105e990610ef1565b80601f016020809104026020016040519081016040528092919081815260200182805461061590610ef1565b80156106625780601f1061063757610100808354040283529160200191610662565b820191906000526020600020905b81548152906001019060200180831161064557829003601f168201915b505050505081526020016002820160009054906101000a900473ffffffffffffffffffffffffffffffffffffffff1673ffffffffffffffffffffffffffffffffffffffff1673ffffffffffffffffffffffffffffffffffffffff1681526020016003820154815250508383815181106106de576106dd610f86565b5b602002602001018190525081806106f490610fb5565b9250505b808061070390610fb5565b91505061051c565b5060008167ffffffffffffffff81111561072857610727610910565b5b60405190808252806020026020018201604052801561076157816020015b61074e61084d565b8152602001906001900390816107465790505b50905060005b828110156107bb5783818151811061078257610781610f86565b5b602002602001015182828151811061079d5761079c610f86565b5b602002602001018190525080806107b390610fb5565b915050610767565b50809350505050919050565b8280546107d390610ef1565b90600052602060002090601f0160209004810192826107f5576000855561083c565b82601f1061080e57805160ff191683800117855561083c565b8280016001018555821561083c579182015b8281111561083b578251825591602001919060010190610820565b5b509050610849919061088e565b5090565b60405180608001604052806000801916815260200160608152602001600073ffffffffffffffffffffffffffffffffffffffff168152602001600081525090565b5b808211156108a757600081600090555060010161088f565b5090565b6000604051905090565b600080fd5b600080fd5b6000819050919050565b6108d2816108bf565b81146108dd57600080fd5b50565b6000813590506108ef816108c9565b92915050565b600080fd5b600080fd5b6000601f19601f8301169050919050565b7f4e487b7100000000000000000000000000000000000000000000000000000000600052604160045260246000fd5b610948826108ff565b810181811067ffffffffffffffff8211171561096757610966610910565b5b80604052505050565b600061097a6108ab565b9050610986828261093f565b919050565b600067ffffffffffffffff8211156109a6576109a5610910565b5b6109af826108ff565b9050602081019050919050565b82818337600083830152505050565b60006109de6109d98461098b565b610970565b9050828152602081018484840111156109fa576109f96108fa565b5b610a058482856109bc565b509392505050565b600082601f830112610a2257610a216108f5565b5b8135610a328482602086016109cb565b91505092915050565b6000819050919050565b610a4e81610a3b565b8114610a5957600080fd5b50565b600081359050610a6b81610a45565b92915050565b60008060008060808587031215610a8b57610a8a6108b5565b5b6000610a99878288016108e0565b945050602085013567ffffffffffffffff811115610aba57610ab96108ba565b5b610ac687828801610a0d565b935050604085013567ffffffffffffffff811115610ae757610ae66108ba565b5b610af387828801610a0d565b9250506060610b0487828801610a5c565b91505092959194509250565b600073ffffffffffffffffffffffffffffffffffffffff82169050919050565b6000610b3b82610b10565b9050919050565b610b4b81610b30565b8114610b5657600080fd5b50565b600081359050610b6881610b42565b92915050565b600060208284031215610b8457610b836108b5565b5b6000610b9284828501610b59565b91505092915050565b600081519050919050565b600082825260208201905092915050565b60005b83811015610bd5578082015181840152602081019050610bba565b83811115610be4576000848401525b50505050565b6000610bf582610b9b565b610bff8185610ba6565b9350610c0f818560208601610bb7565b610c18816108ff565b840191505092915050565b60006020820190508181036000830152610c3d8184610bea565b905092915050565b600080600060608486031215610c5e57610c5d6108b5565b5b6000610c6c86828701610a5c565b9350506020610c7d86828701610a5c565b9250506040610c8e86828701610b59565b9150509250925092565b600081519050919050565b600082825260208201905092915050565b6000819050602082019050919050565b610ccd816108bf565b82525050565b600082825260208201905092915050565b6000610cef82610b9b565b610cf98185610cd3565b9350610d09818560208601610bb7565b610d12816108ff565b840191505092915050565b610d2681610b30565b82525050565b610d3581610a3b565b82525050565b6000608083016000830151610d536000860182610cc4565b5060208301518482036020860152610d6b8282610ce4565b9150506040830151610d806040860182610d1d565b506060830151610d936060860182610d2c565b508091505092915050565b6000610daa8383610d3b565b905092915050565b6000602082019050919050565b6000610dca82610c98565b610dd48185610ca3565b935083602082028501610de685610cb4565b8060005b85811015610e225784840389528151610e038582610d9e565b9450610e0e83610db2565b925060208a01995050600181019050610dea565b50829750879550505050505092915050565b60006020820190508181036000830152610e4e8184610dbf565b905092915050565b7f4e616d6520746f6f206c6f6e6700000000000000000000000000000000000000600082015250565b6000610e8c600d83610ba6565b9150610e9782610e56565b602082019050919050565b60006020820190508181036000830152610ebb81610e7f565b9050919050565b7f4e487b7100000000000000000000000000000000000000000000000000000000600052602260045260246000fd5b60006002820490506001821680610f0957607f821691505b60208210811415610f1d57610f1c610ec2565b5b50919050565b7f4e487b7100000000000000000000000000000000000000000000000000000000600052601160045260246000fd5b6000610f5d82610a3b565b9150610f6883610a3b565b925082821015610f7b57610f7a610f23565b5b828203905092915050565b7f4e487b7100000000000000000000000000000000000000000000000000000000600052603260045260246000fd5b6000610fc082610a3b565b91507fffffffffffffffffffffffffffffffffffffffffffffffffffffffffffffffff821415610ff357610ff2610f23565b5b60018201905091905056fea26469706673582212208c9ebc82a068cb01e90e6ddd9f07d852a2bafa5ddb7c61db40095cf52639760764736f6c63430008090033",
  "linkReferences": {},
  "deployedLinkReferences": {}
}