{
  "_format": "hh-sol-artifact-1",
  "contractName": "Ideas",
  "sourceName": "contracts/Ideas.sol",
  "abi": [
    {
      "anonymous": false,
      "inputs": [
        {
          "indexed": true,
          "internalType": "uint256",
          "name": "id",
          "type": "uint256"
        },
        {
          "indexed": true,
          "internalType": "address",
          "name": "from",
          "type": "address"
        },
        {
          "indexed": false,
          "internalType": "string",
          "name": "title",
          "type": "string"
        },
        {
          "indexed": false,
          "internalType": "string",
          "name": "message",
          "type": "string"
        },
        {
          "indexed": false,
          "internalType": "uint256",
          "name": "timestamp",
          "type": "uint256"
        }
      ],
      "name": "Idea",
      "type": "event"
    },
    {
      "inputs": [
        {
          "internalType": "string",
          "name": "_title",
          "type": "string"
        },
        {
          "internalType": "string",
          "name": "_message",
          "type": "string"
        },
        {
          "internalType": "uint256",
          "name": "_timestamp",
          "type": "uint256"
        }
      ],
      "name": "addIdea",
      "outputs": [],
      "stateMutability": "nonpayable",
      "type": "function"
    },
    {
      "inputs": [
        {
          "internalType": "address",
          "name": "_address",
          "type": "address"
        },
        {
          "internalType": "uint256",
          "name": "start",
          "type": "uint256"
        },
        {
          "internalType": "uint256",
          "name": "limit",
          "type": "uint256"
        }
      ],
      "name": "getIdeasByAddress",
      "outputs": [
        {
          "components": [
            {
              "internalType": "uint256",
              "name": "id",
              "type": "uint256"
            },
            {
              "internalType": "string",
              "name": "title",
              "type": "string"
            },
            {
              "internalType": "string",
              "name": "message",
              "type": "string"
            },
            {
              "internalType": "uint256",
              "name": "timestamp",
              "type": "uint256"
            }
          ],
          "internalType": "struct Ideas.IdeaType[]",
          "name": "",
          "type": "tuple[]"
        }
      ],
      "stateMutability": "view",
      "type": "function"
    }
  ],
  "bytecode": "0x608060405234801561001057600080fd5b50610d00806100206000396000f3fe608060405234801561001057600080fd5b50600436106100365760003560e01c8063237e8f2f1461003b5780639aec77251461006b575b600080fd5b61005560048036038101906100509190610691565b610087565b60405161006291906108b8565b60405180910390f35b61008560048036038101906100809190610a0f565b6103ba565b005b60606000600160008673ffffffffffffffffffffffffffffffffffffffff1673ffffffffffffffffffffffffffffffffffffffff168152602001908152602001600020905060008180549050905080851061013a57600067ffffffffffffffff8111156100f7576100f66108e4565b5b60405190808252806020026020018201604052801561013057816020015b61011d61051e565b8152602001906001900390816101155790505b50925050506103b3565b600084866101489190610ac9565b905081811115610156578190505b600086826101649190610b1f565b67ffffffffffffffff81111561017d5761017c6108e4565b5b6040519080825280602002602001820160405280156101b657816020015b6101a361051e565b81526020019060019003908161019b5790505b50905060005b87836101c89190610b1f565b8110156103aa57600088826001876101e09190610b1f565b6101ea9190610b1f565b6101f49190610b1f565b9050600086828154811061020b5761020a610b53565b5b90600052602060002001548154811061022757610226610b53565b5b90600052602060002090600402016040518060800160405290816000820154815260200160018201805461025a90610bb1565b80601f016020809104026020016040519081016040528092919081815260200182805461028690610bb1565b80156102d35780601f106102a8576101008083540402835291602001916102d3565b820191906000526020600020905b8154815290600101906020018083116102b657829003601f168201915b505050505081526020016002820180546102ec90610bb1565b80601f016020809104026020016040519081016040528092919081815260200182805461031890610bb1565b80156103655780601f1061033a57610100808354040283529160200191610365565b820191906000526020600020905b81548152906001019060200180831161034857829003601f168201915b5050505050815260200160038201548152505083838151811061038b5761038a610b53565b5b60200260200101819052505080806103a290610be3565b9150506101bc565b50809450505050505b9392505050565b60008080549050905060006040518060800160405280838152602001868152602001858152602001848152509080600181540180825580915050600190039060005260206000209060040201600090919091909150600082015181600001556020820151816001019080519060200190610435929190610546565b506040820151816002019080519060200190610452929190610546565b50606082015181600301555050600160003373ffffffffffffffffffffffffffffffffffffffff1673ffffffffffffffffffffffffffffffffffffffff1681526020019081526020016000208190806001815401808255809150506001900390600052602060002001600090919091909150553373ffffffffffffffffffffffffffffffffffffffff16817f1002f69852411fb872f556d53f6d7efbc2783dfe11856ac381bcced46ba9701586868660405161051093929190610c85565b60405180910390a350505050565b6040518060800160405280600081526020016060815260200160608152602001600081525090565b82805461055290610bb1565b90600052602060002090601f01602090048101928261057457600085556105bb565b82601f1061058d57805160ff19168380011785556105bb565b828001600101855582156105bb579182015b828111156105ba57825182559160200191906001019061059f565b5b5090506105c891906105cc565b5090565b5b808211156105e55760008160009055506001016105cd565b5090565b6000604051905090565b600080fd5b600080fd5b600073ffffffffffffffffffffffffffffffffffffffff82169050919050565b6000610628826105fd565b9050919050565b6106388161061d565b811461064357600080fd5b50565b6000813590506106558161062f565b92915050565b6000819050919050565b61066e8161065b565b811461067957600080fd5b50565b60008135905061068b81610665565b92915050565b6000806000606084860312156106aa576106a96105f3565b5b60006106b886828701610646565b93505060206106c98682870161067c565b92505060406106da8682870161067c565b9150509250925092565b600081519050919050565b600082825260208201905092915050565b6000819050602082019050919050565b6107198161065b565b82525050565b600081519050919050565b600082825260208201905092915050565b60005b8381101561075957808201518184015260208101905061073e565b83811115610768576000848401525b50505050565b6000601f19601f8301169050919050565b600061078a8261071f565b610794818561072a565b93506107a481856020860161073b565b6107ad8161076e565b840191505092915050565b60006080830160008301516107d06000860182610710565b50602083015184820360208601526107e8828261077f565b91505060408301518482036040860152610802828261077f565b91505060608301516108176060860182610710565b508091505092915050565b600061082e83836107b8565b905092915050565b6000602082019050919050565b600061084e826106e4565b61085881856106ef565b93508360208202850161086a85610700565b8060005b858110156108a657848403895281516108878582610822565b945061089283610836565b925060208a0199505060018101905061086e565b50829750879550505050505092915050565b600060208201905081810360008301526108d28184610843565b905092915050565b600080fd5b600080fd5b7f4e487b7100000000000000000000000000000000000000000000000000000000600052604160045260246000fd5b61091c8261076e565b810181811067ffffffffffffffff8211171561093b5761093a6108e4565b5b80604052505050565b600061094e6105e9565b905061095a8282610913565b919050565b600067ffffffffffffffff82111561097a576109796108e4565b5b6109838261076e565b9050602081019050919050565b82818337600083830152505050565b60006109b26109ad8461095f565b610944565b9050828152602081018484840111156109ce576109cd6108df565b5b6109d9848285610990565b509392505050565b600082601f8301126109f6576109f56108da565b5b8135610a0684826020860161099f565b91505092915050565b600080600060608486031215610a2857610a276105f3565b5b600084013567ffffffffffffffff811115610a4657610a456105f8565b5b610a52868287016109e1565b935050602084013567ffffffffffffffff811115610a7357610a726105f8565b5b610a7f868287016109e1565b9250506040610a908682870161067c565b9150509250925092565b7f4e487b7100000000000000000000000000000000000000000000000000000000600052601160045260246000fd5b6000610ad48261065b565b9150610adf8361065b565b9250827fffffffffffffffffffffffffffffffffffffffffffffffffffffffffffffffff03821115610b1457610b13610a9a565b5b828201905092915050565b6000610b2a8261065b565b9150610b358361065b565b925082821015610b4857610b47610a9a565b5b828203905092915050565b7f4e487b7100000000000000000000000000000000000000000000000000000000600052603260045260246000fd5b7f4e487b7100000000000000000000000000000000000000000000000000000000600052602260045260246000fd5b60006002820490506001821680610bc957607f821691505b60208210811415610bdd57610bdc610b82565b5b50919050565b6000610bee8261065b565b91507fffffffffffffffffffffffffffffffffffffffffffffffffffffffffffffffff821415610c2157610c20610a9a565b5b600182019050919050565b600082825260208201905092915050565b6000610c488261071f565b610c528185610c2c565b9350610c6281856020860161073b565b610c6b8161076e565b840191505092915050565b610c7f8161065b565b82525050565b60006060820190508181036000830152610c9f8186610c3d565b90508181036020830152610cb38185610c3d565b9050610cc26040830184610c76565b94935050505056fea26469706673582212203441a0cf1044c761d5c7e1e963daf55b71999216fb2409d4c209dcff42fd566864736f6c63430008090033",
  "linkReferences": {},
  "deployedLinkReferences": {}
}