{
  "_format": "hh-sol-artifact-1",
  "contractName": "Ideas",
  "sourceName": "contracts/Ideas.sol",
  "abi": [
    {
      "anonymous": false,
      "inputs": [
        {
          "indexed": true,
          "internalType": "address",
          "name": "from",
          "type": "address"
        },
        {
          "indexed": false,
          "internalType": "string",
          "name": "title",
          "type": "string"
        },
        {
          "indexed": false,
          "internalType": "string",
          "name": "message",
          "type": "string"
        },
        {
          "indexed": false,
          "internalType": "uint256",
          "name": "timestamp",
          "type": "uint256"
        }
      ],
      "name": "Idea",
      "type": "event"
    },
    {
      "inputs": [
        {
          "internalType": "string",
          "name": "_title",
          "type": "string"
        },
        {
          "internalType": "string",
          "name": "_message",
          "type": "string"
        },
        {
          "internalType": "uint256",
          "name": "_timestamp",
          "type": "uint256"
        }
      ],
      "name": "addIdea",
      "outputs": [],
      "stateMutability": "nonpayable",
      "type": "function"
    },
    {
      "inputs": [
        {
          "internalType": "address",
          "name": "_address",
          "type": "address"
        },
        {
          "internalType": "uint256",
          "name": "start",
          "type": "uint256"
        },
        {
          "internalType": "uint256",
          "name": "limit",
          "type": "uint256"
        }
      ],
      "name": "getIdeasByAddress",
      "outputs": [
        {
          "components": [
            {
              "internalType": "string",
              "name": "title",
              "type": "string"
            },
            {
              "internalType": "string",
              "name": "message",
              "type": "string"
            },
            {
              "internalType": "uint256",
              "name": "timestamp",
              "type": "uint256"
            }
          ],
          "internalType": "struct Ideas.IdeaType[]",
          "name": "",
          "type": "tuple[]"
        }
      ],
      "stateMutability": "view",
      "type": "function"
    }
  ],
  "bytecode": "0x608060405234801561001057600080fd5b50610c8f806100206000396000f3fe608060405234801561001057600080fd5b50600436106100365760003560e01c8063237e8f2f1461003b5780639aec77251461006b575b600080fd5b61005560048036038101906100509190610633565b610087565b6040516100629190610847565b60405180910390f35b6100856004803603810190610080919061099e565b6103a2565b005b606060008060008673ffffffffffffffffffffffffffffffffffffffff1673ffffffffffffffffffffffffffffffffffffffff16815260200190815260200160002080549050905080841061013357600067ffffffffffffffff8111156100f1576100f0610873565b5b60405190808252806020026020018201604052801561012a57816020015b6101176104c7565b81526020019060019003908161010f5790505b5091505061039b565b600083856101419190610a58565b90508181111561014f578190505b6000858261015d9190610aae565b67ffffffffffffffff81111561017657610175610873565b5b6040519080825280602002602001820160405280156101af57816020015b61019c6104c7565b8152602001906001900390816101945790505b50905060008690505b82811015610393576000808973ffffffffffffffffffffffffffffffffffffffff1673ffffffffffffffffffffffffffffffffffffffff16815260200190815260200160002081815481106102105761020f610ae2565b5b906000526020600020906003020160405180606001604052908160008201805461023990610b40565b80601f016020809104026020016040519081016040528092919081815260200182805461026590610b40565b80156102b25780601f10610287576101008083540402835291602001916102b2565b820191906000526020600020905b81548152906001019060200180831161029557829003601f168201915b505050505081526020016001820180546102cb90610b40565b80601f01602080910402602001604051908101604052809291908181526020018280546102f790610b40565b80156103445780601f1061031957610100808354040283529160200191610344565b820191906000526020600020905b81548152906001019060200180831161032757829003601f168201915b505050505081526020016002820154815250508288836103649190610aae565b8151811061037557610374610ae2565b5b6020026020010181905250808061038b90610b72565b9150506101b8565b508093505050505b9392505050565b600060405180606001604052808581526020018481526020018381525090506000803373ffffffffffffffffffffffffffffffffffffffff1673ffffffffffffffffffffffffffffffffffffffff16815260200190815260200160002081908060018154018082558091505060019003906000526020600020906003020160009091909190915060008201518160000190805190602001906104459291906104e8565b5060208201518160010190805190602001906104629291906104e8565b506040820151816002015550503373ffffffffffffffffffffffffffffffffffffffff167fb5cbc7e3ead2e19aaa07ea12748dd378ee6f6d58fa929227df9cae527176088d8585856040516104b993929190610c14565b60405180910390a250505050565b60405180606001604052806060815260200160608152602001600081525090565b8280546104f490610b40565b90600052602060002090601f016020900481019282610516576000855561055d565b82601f1061052f57805160ff191683800117855561055d565b8280016001018555821561055d579182015b8281111561055c578251825591602001919060010190610541565b5b50905061056a919061056e565b5090565b5b8082111561058757600081600090555060010161056f565b5090565b6000604051905090565b600080fd5b600080fd5b600073ffffffffffffffffffffffffffffffffffffffff82169050919050565b60006105ca8261059f565b9050919050565b6105da816105bf565b81146105e557600080fd5b50565b6000813590506105f7816105d1565b92915050565b6000819050919050565b610610816105fd565b811461061b57600080fd5b50565b60008135905061062d81610607565b92915050565b60008060006060848603121561064c5761064b610595565b5b600061065a868287016105e8565b935050602061066b8682870161061e565b925050604061067c8682870161061e565b9150509250925092565b600081519050919050565b600082825260208201905092915050565b6000819050602082019050919050565b600081519050919050565b600082825260208201905092915050565b60005b838110156106ec5780820151818401526020810190506106d1565b838111156106fb576000848401525b50505050565b6000601f19601f8301169050919050565b600061071d826106b2565b61072781856106bd565b93506107378185602086016106ce565b61074081610701565b840191505092915050565b610754816105fd565b82525050565b600060608301600083015184820360008601526107778282610712565b915050602083015184820360208601526107918282610712565b91505060408301516107a6604086018261074b565b508091505092915050565b60006107bd838361075a565b905092915050565b6000602082019050919050565b60006107dd82610686565b6107e78185610691565b9350836020820285016107f9856106a2565b8060005b85811015610835578484038952815161081685826107b1565b9450610821836107c5565b925060208a019950506001810190506107fd565b50829750879550505050505092915050565b6000602082019050818103600083015261086181846107d2565b905092915050565b600080fd5b600080fd5b7f4e487b7100000000000000000000000000000000000000000000000000000000600052604160045260246000fd5b6108ab82610701565b810181811067ffffffffffffffff821117156108ca576108c9610873565b5b80604052505050565b60006108dd61058b565b90506108e982826108a2565b919050565b600067ffffffffffffffff82111561090957610908610873565b5b61091282610701565b9050602081019050919050565b82818337600083830152505050565b600061094161093c846108ee565b6108d3565b90508281526020810184848401111561095d5761095c61086e565b5b61096884828561091f565b509392505050565b600082601f83011261098557610984610869565b5b813561099584826020860161092e565b91505092915050565b6000806000606084860312156109b7576109b6610595565b5b600084013567ffffffffffffffff8111156109d5576109d461059a565b5b6109e186828701610970565b935050602084013567ffffffffffffffff811115610a0257610a0161059a565b5b610a0e86828701610970565b9250506040610a1f8682870161061e565b9150509250925092565b7f4e487b7100000000000000000000000000000000000000000000000000000000600052601160045260246000fd5b6000610a63826105fd565b9150610a6e836105fd565b9250827fffffffffffffffffffffffffffffffffffffffffffffffffffffffffffffffff03821115610aa357610aa2610a29565b5b828201905092915050565b6000610ab9826105fd565b9150610ac4836105fd565b925082821015610ad757610ad6610a29565b5b828203905092915050565b7f4e487b7100000000000000000000000000000000000000000000000000000000600052603260045260246000fd5b7f4e487b7100000000000000000000000000000000000000000000000000000000600052602260045260246000fd5b60006002820490506001821680610b5857607f821691505b60208210811415610b6c57610b6b610b11565b5b50919050565b6000610b7d826105fd565b91507fffffffffffffffffffffffffffffffffffffffffffffffffffffffffffffffff821415610bb057610baf610a29565b5b600182019050919050565b600082825260208201905092915050565b6000610bd7826106b2565b610be18185610bbb565b9350610bf18185602086016106ce565b610bfa81610701565b840191505092915050565b610c0e816105fd565b82525050565b60006060820190508181036000830152610c2e8186610bcc565b90508181036020830152610c428185610bcc565b9050610c516040830184610c05565b94935050505056fea2646970667358221220e90771c208ff6b960856700c1839c1063ae1697652e4dcf9d1d6da6d5415da4464736f6c63430008090033",
  "linkReferences": {},
  "deployedLinkReferences": {}
}