{
  "_format": "hh-sol-artifact-1",
  "contractName": "Ideas",
  "sourceName": "contracts/Ideas.sol",
  "abi": [
    {
      "inputs": [
        {
          "internalType": "bytes32",
          "name": "_title",
          "type": "bytes32"
        },
        {
          "internalType": "string",
          "name": "_description",
          "type": "string"
        },
        {
          "internalType": "uint256",
          "name": "_timestamp",
          "type": "uint256"
        }
      ],
      "name": "addIdea",
      "outputs": [],
      "stateMutability": "nonpayable",
      "type": "function"
    },
    {
      "inputs": [
        {
          "internalType": "uint256",
          "name": "startIndex",
          "type": "uint256"
        },
        {
          "internalType": "uint256",
          "name": "endIndex",
          "type": "uint256"
        },
        {
          "internalType": "address",
          "name": "_address",
          "type": "address"
        }
      ],
      "name": "getIdeas",
      "outputs": [
        {
          "components": [
            {
              "internalType": "bytes32",
              "name": "title",
              "type": "bytes32"
            },
            {
              "internalType": "string",
              "name": "description",
              "type": "string"
            },
            {
              "internalType": "address",
              "name": "from",
              "type": "address"
            },
            {
              "internalType": "uint256",
              "name": "timestamp",
              "type": "uint256"
            }
          ],
          "internalType": "struct Ideas.Idea[]",
          "name": "",
          "type": "tuple[]"
        }
      ],
      "stateMutability": "view",
      "type": "function"
    }
  ],
  "bytecode": "0x608060405234801561001057600080fd5b50610d04806100206000396000f3fe608060405234801561001057600080fd5b50600436106100365760003560e01c8063965eb69e1461003b578063d7b408c91461006b575b600080fd5b61005560048036038101906100509190610758565b610087565b60405161006291906109a0565b60405180910390f35b61008560048036038101906100809190610b23565b6101de565b005b60606000610094836102bf565b905080518411156100a457805193505b83851061010857600067ffffffffffffffff8111156100c6576100c56109f8565b5b6040519080825280602002602001820160405280156100ff57816020015b6100ec6105cc565b8152602001906001900390816100e45790505b509150506101d7565b600085856101169190610bc1565b67ffffffffffffffff81111561012f5761012e6109f8565b5b60405190808252806020026020018201604052801561016857816020015b6101556105cc565b81526020019060019003908161014d5790505b50905060008690505b858110156101d05782818151811061018c5761018b610bf5565b5b60200260200101518288836101a19190610bc1565b815181106101b2576101b1610bf5565b5b602002602001018190525080806101c890610c24565b915050610171565b5080925050505b9392505050565b600060405180608001604052808581526020018481526020013373ffffffffffffffffffffffffffffffffffffffff16815260200183815250908060018154018082558091505060019003906000526020600020906004020160009091909190915060008201518160000155602082015181600101908051906020019061026692919061060d565b5060408201518160020160006101000a81548173ffffffffffffffffffffffffffffffffffffffff021916908373ffffffffffffffffffffffffffffffffffffffff160217905550606082015181600301555050505050565b60606000808054905067ffffffffffffffff8111156102e1576102e06109f8565b5b60405190808252806020026020018201604052801561031a57816020015b6103076105cc565b8152602001906001900390816102ff5790505b5090506000805b600080549050811015610510578473ffffffffffffffffffffffffffffffffffffffff166000828154811061035957610358610bf5565b5b906000526020600020906004020160020160009054906101000a900473ffffffffffffffffffffffffffffffffffffffff1673ffffffffffffffffffffffffffffffffffffffff1614156104fd57600081815481106103bb576103ba610bf5565b5b9060005260206000209060040201604051806080016040529081600082015481526020016001820180546103ee90610c9c565b80601f016020809104026020016040519081016040528092919081815260200182805461041a90610c9c565b80156104675780601f1061043c57610100808354040283529160200191610467565b820191906000526020600020905b81548152906001019060200180831161044a57829003601f168201915b505050505081526020016002820160009054906101000a900473ffffffffffffffffffffffffffffffffffffffff1673ffffffffffffffffffffffffffffffffffffffff1673ffffffffffffffffffffffffffffffffffffffff1681526020016003820154815250508383815181106104e3576104e2610bf5565b5b602002602001018190525081806104f990610c24565b9250505b808061050890610c24565b915050610321565b5060008167ffffffffffffffff81111561052d5761052c6109f8565b5b60405190808252806020026020018201604052801561056657816020015b6105536105cc565b81526020019060019003908161054b5790505b50905060005b828110156105c05783818151811061058757610586610bf5565b5b60200260200101518282815181106105a2576105a1610bf5565b5b602002602001018190525080806105b890610c24565b91505061056c565b50809350505050919050565b60405180608001604052806000801916815260200160608152602001600073ffffffffffffffffffffffffffffffffffffffff168152602001600081525090565b82805461061990610c9c565b90600052602060002090601f01602090048101928261063b5760008555610682565b82601f1061065457805160ff1916838001178555610682565b82800160010185558215610682579182015b82811115610681578251825591602001919060010190610666565b5b50905061068f9190610693565b5090565b5b808211156106ac576000816000905550600101610694565b5090565b6000604051905090565b600080fd5b600080fd5b6000819050919050565b6106d7816106c4565b81146106e257600080fd5b50565b6000813590506106f4816106ce565b92915050565b600073ffffffffffffffffffffffffffffffffffffffff82169050919050565b6000610725826106fa565b9050919050565b6107358161071a565b811461074057600080fd5b50565b6000813590506107528161072c565b92915050565b600080600060608486031215610771576107706106ba565b5b600061077f868287016106e5565b9350506020610790868287016106e5565b92505060406107a186828701610743565b9150509250925092565b600081519050919050565b600082825260208201905092915050565b6000819050602082019050919050565b6000819050919050565b6107ea816107d7565b82525050565b600081519050919050565b600082825260208201905092915050565b60005b8381101561082a57808201518184015260208101905061080f565b83811115610839576000848401525b50505050565b6000601f19601f8301169050919050565b600061085b826107f0565b61086581856107fb565b935061087581856020860161080c565b61087e8161083f565b840191505092915050565b6108928161071a565b82525050565b6108a1816106c4565b82525050565b60006080830160008301516108bf60008601826107e1565b50602083015184820360208601526108d78282610850565b91505060408301516108ec6040860182610889565b5060608301516108ff6060860182610898565b508091505092915050565b600061091683836108a7565b905092915050565b6000602082019050919050565b6000610936826107ab565b61094081856107b6565b935083602082028501610952856107c7565b8060005b8581101561098e578484038952815161096f858261090a565b945061097a8361091e565b925060208a01995050600181019050610956565b50829750879550505050505092915050565b600060208201905081810360008301526109ba818461092b565b905092915050565b6109cb816107d7565b81146109d657600080fd5b50565b6000813590506109e8816109c2565b92915050565b600080fd5b600080fd5b7f4e487b7100000000000000000000000000000000000000000000000000000000600052604160045260246000fd5b610a308261083f565b810181811067ffffffffffffffff82111715610a4f57610a4e6109f8565b5b80604052505050565b6000610a626106b0565b9050610a6e8282610a27565b919050565b600067ffffffffffffffff821115610a8e57610a8d6109f8565b5b610a978261083f565b9050602081019050919050565b82818337600083830152505050565b6000610ac6610ac184610a73565b610a58565b905082815260208101848484011115610ae257610ae16109f3565b5b610aed848285610aa4565b509392505050565b600082601f830112610b0a57610b096109ee565b5b8135610b1a848260208601610ab3565b91505092915050565b600080600060608486031215610b3c57610b3b6106ba565b5b6000610b4a868287016109d9565b935050602084013567ffffffffffffffff811115610b6b57610b6a6106bf565b5b610b7786828701610af5565b9250506040610b88868287016106e5565b9150509250925092565b7f4e487b7100000000000000000000000000000000000000000000000000000000600052601160045260246000fd5b6000610bcc826106c4565b9150610bd7836106c4565b925082821015610bea57610be9610b92565b5b828203905092915050565b7f4e487b7100000000000000000000000000000000000000000000000000000000600052603260045260246000fd5b6000610c2f826106c4565b91507fffffffffffffffffffffffffffffffffffffffffffffffffffffffffffffffff821415610c6257610c61610b92565b5b600182019050919050565b7f4e487b7100000000000000000000000000000000000000000000000000000000600052602260045260246000fd5b60006002820490506001821680610cb457607f821691505b60208210811415610cc857610cc7610c6d565b5b5091905056fea26469706673582212201998a016d2ca40b3c3d7ef9d50a061de7adf81932a690da7236c8c2e3244e15464736f6c63430008090033",
  "linkReferences": {},
  "deployedLinkReferences": {}
}